:100000000C9443010C94B82A0C94E52A0C94A5276F
:100010000C946B010C946B010C946B010C946B01B0
:100020000C946B010C946B010C946B010C946B01A0
:100030000C946B010C946B010C946B010C946B0190
:100040000C94D10B0C946B010C94D40E0C941B0FDC
:100050000C946B010C946B010C946B010C946B0170
:100060000C946B010C946B0124504D544B32323084
:100070002C313030302A31460024504D544B33312E
:10008000342C302C312C302C312C302C302C302C8A
:10009000302C302C302C302C302C302C302C302C80
:1000A000302C302C302C302A3238002425732C256B
:1000B000732C323025732D25732D25735425733AF7
:1000C00025733A25735A2C256C642C256C642C25D9
:1000D0006C642C25632C25732C25732C25732C25FF
:1000E000732C25732C25732C25732C2573004572D6
:1000F000726F723A204C6F672066696C652063618D
:100100006E6E6F74206265206F70656E65642E0A76
:1001100000534420696E69742E2E2E0A00436172CA
:1001200064206661696C7572652E2E2E0A0043612B
:10013000726420696E697469616C697A65640A0029
:1001400023204E4557204C4F470A23206669726D85
:10015000776172653D00624765696769654D696EE3
:10016000692D312E332E31305F3030303131310056
:100170004465766963652049643A20000000000008
:10018000240027002A0000000000250028002B0082
:1001900000000000230026002900040404040404D5
:1001A0000404020202020202030303030303010226
:1001B00004081020408001020408102001020408F5
:1001C00010200000000700020100000304060000E8
:1001D0000000000000007C3C3E5E2B3D3F2F5B5D3D
:1001E0003B2C2A225C004255464645522046554C3F
:1001F0004C2E20544F5353494E4720494E434F4DA8
:10020000494E4720444154410A0043484942493A33
:1002100020436F6D6D616E64206E6F742072656334
:100220006F676E697A65642E002A2A2A2A2A2A2A8A
:100230002A2A2A2A2A2A2A2A204348494249202AA5
:100240002A2A2A2A2A2A2A2A2A2A2A2A2A2A2A2A0E
:100250002A2A004348494249203E3E200052414458
:10026000494F204E4F5420494E495449414C495A18
:1002700045442050524F5045524C590A00003A060E
:100280007E10CE10330611241FBECFEFD8E0DEBFA4
:10029000CDBF11E0A0E0B1E0EAE3F7E502C00590D0
:1002A0000D92AE38B107D9F716E0AEE8B1E001C063
:1002B0001D92A63CB107E1F712E0C4E8D2E004C009
:1002C0002297FE010E948C2BCE37D107C9F70E94DE
:1002D000C40E0C946C020C940000CF93DF93BC010D
:1002E0008230910510F462E070E0A091C406B091F4
:1002F000C506ED0140E050E0E0E0F0E021C088817B
:1003000099818617970769F48A819B81309719F044
:100310009383828304C09093C5068093C406FE0134
:1003200033C06817790738F44115510519F084175F
:10033000950708F4AC01FE018A819B819C01E901CB
:100340002097E9F641155105A1F1CA01861B970BCB
:10035000049708F4BA01E0E0F0E029C08D919C9187
:10036000119784179507F1F46417750779F4ED0177
:100370008A819B81309719F09383828304C0909384
:10038000C5068093C406FD0132964CC0CA01861B87
:10039000970BFD01E80FF91F6193719302978D93FD
:1003A0009C9340C0FD01828193819C01D9011097EB
:1003B000A9F68091C2069091C306892B41F48091E1
:1003C0004C0190914D019093C3068093C2064091D9
:1003D0004E0150914F014115510541F44DB75EB7A3
:1003E00080914A0190914B01481B590B2091C20604
:1003F0003091C306CA01821B930B8617970780F0C2
:10040000AB014E5F5F4F8417950750F0420F531FAB
:100410005093C3064093C206F9016193719302C0E1
:10042000E0E0F0E0CF01DF91CF910895CF93DF932B
:10043000009709F44EC0EC0122971B821A82A0910A
:10044000C406B091C506109701F140E050E0AC172A
:10045000BD0700F1BB83AA83FE0121913191E20F18
:10046000F31FAE17BF0771F48D919C911197280F60
:10047000391F2E5F3F4F39832883FD01828193818D
:100480009B838A834115510569F4D093C506C093B7
:10049000C4061FC0FD0182819381AD01009711F058
:1004A000DC01D5CFFA01D383C28321913191E20FD0
:1004B000F31FCE17DF0769F488819981280F391F50
:1004C0002E5F3F4FFA01318320838A819B81938382
:1004D0008283DF91CF910895F8940C94902BFB01C7
:1004E000DC0105900D920020E1F708954EE851E0FF
:1004F0000E94CD020895FB01DC0104C08D910190A2
:10050000801921F441505040C8F7881B990B089579
:10051000FB01DC010D900020E9F7119701900D928D
:100520000020E1F70895FC018191861721F08823CE
:10053000D9F7992708953197CF010895FB01DC0180
:100540008D91019080190110D9F3990B0895FB0149
:10055000DC0101900D920020E1F70895FB01DC0120
:100560000D900020E9F711974150504028F001907C
:1005700000200D92C9F708951C920895FB01DC013B
:100580004150504048F001900D920020C9F701C041
:100590001D9241505040E0F70895009731F4DA0180
:1005A0008D919C91009709F40EC0DC01FB013D91F7
:1005B0002191222319F03217C9F3FACF332331F4F2
:1005C000DA011D921C928827992708951197AF93FD
:1005D000BF93FB013D912191321771F4332321F434
:1005E00088279927119702C01E921196FA01A193AC
:1005F000B0839F918F910895222369F7EACFA0E0FD
:10060000B0E0E5E0F3E00C945D2B7C01EB018A01A6
:10061000690109C0CE012196F6010995F701819380
:100620007F010150104001151105A1F7CDB7DEB7CC
:10063000E8E00C94792BA0E0B0E0E1E2F3E00C9468
:100640005D2BEC017B018A01690109C0CE01219675
:10065000F70161917F01F6010995015010400115E4
:100660001105A1F7CDB7DEB7E8E00C94792BAEE029
:10067000B0E0EDE3F3E00C94612B0D891E8986E078
:100680008C831A8309838FEF9FE79E838D839E015E
:10069000275E3F4FCE0101966F89788DA9010E9498
:1006A0007F032F813885020F131FF80110822E96C9
:1006B000E4E00C947D2BAEE0B0E0E1E6F3E00C94D6
:1006C000612B0D891E898EE08C831A8309838FEF3D
:1006D0009FE79E838D839E01275E3F4FCE0101964B
:1006E0006F89788DA9010E947F032F813885020FC1
:1006F000131FF80110822E96E4E00C947D2BABE0E2
:10070000B0E0E5E8F3E00C94532B3C012B016A01C7
:10071000FC0117821682838181FD03C06FEF7FEF9A
:10072000BFC19AE0892E1E010894211C311CF301DF
:100730002381F20123FD859123FF81912F018823DD
:1007400009F4ABC1853239F423FD859123FF8191F2
:100750002F01853229F490E0B3010E946B05E7CFA9
:10076000982FFF24EE249924FFE1FF15B8F0903272
:1007700061F0933281F09B3231F09D3249F0903339
:1007800069F441E024C052E0F52A84E0F82A28C048
:1007900098E0F92A25C0E0E1FE2A22C0F7FC29C032
:1007A000892F80538A3070F4F6FE05C0989C902CF7
:1007B0001124980E15C0E89CE02C1124E80EF0E2FC
:1007C000FF2A0EC09E3229F4F6FC67C140E4F42AE9
:1007D00007C09C3619F450E8F52A02C0983649F44F
:1007E000F20123FD959123FF91912F01992309F0A7
:1007F000BBCF892F8554833018F08052833038F472
:1008000044E050E0C40ED51E5FE359830FC093351A
:1008100031F1933621F0933709F056C00BC0F60141
:100820008081898342E050E0C40ED51E510101E071
:1008300010E012C0F601A080B180F6FC03C06FEF9B
:100840007FEF02C0692D70E042E050E0C40ED51E7B
:10085000C5010E9460058C015FE7F52214C0F60116
:10086000A080B180F6FC03C06FEF7FEF02C0692D5E
:1008700070E042E050E0C40ED51EC5010E9455054F
:100880008C0150E8F52AF3FE07C01AC080E290E020
:10089000B3010E946B05EA948E2D90E008171907AA
:1008A000A8F30EC0F501F7FC8591F7FE81915F0179
:1008B00090E0B3010E946B05E110EA9401501040F2
:1008C0000115110579F7E6C0943611F0993669F5EE
:1008D000F7FE08C0F601208131814281538184E016
:1008E00090E00AC0F601808191819C01442737FD88
:1008F0004095542F82E090E0C80ED91E9FE6F92261
:1009000057FF09C050954095309521953F4F4F4F67
:100910005F4FE0E8FE2ACA01B901A1012AE030E0F8
:100920000E949705B82EB2183CC0953729F41F2DA8
:100930001F7E2AE030E019C01F2D197F983589F0FD
:100940009F3631F0903739F0983709F0A6C004C0CF
:1009500028E030E00AC0106114FD146020E130E0AE
:1009600004C014FD166020E132E017FF08C0F60154
:10097000608171818281938144E050E008C0F6017A
:1009800080819181BC0180E090E042E050E0C40EA3
:10099000D51EA1010E949705B82EB2188FE7F82E38
:1009A000F122F6FE0BC05EEFF522B91438F4F4FE26
:1009B00007C0F2FC05C08FEEF82202C01B2D01C05B
:1009C000192DF4FE0DC0FE01EB0DF11D8081803369
:1009D00019F499EEF92208C01F5FF2FE05C003C0AA
:1009E0008F2D867809F01F5F0F2DF3FC14C0F0FEE9
:1009F0000FC01E1510F09B2C0BC09B2C9E0C911A47
:100A00001E2D06C080E290E0B3010E946B051F5FBF
:100A10001E15C0F304C01E1510F4E11A01C0EE2427
:100A200004FF0FC080E390E0B3010E946B0502FF5A
:100A30001DC001FD03C088E790E00EC088E590E08E
:100A40000BC0802F867891F001FF02C08BE201C0BD
:100A500080E2F7FC8DE290E0B3010E946B0506C0D6
:100A600080E390E0B3010E946B059A94B914C0F33F
:100A7000BA94F101EB0DF11D808190E0B3010E9469
:100A80006B05BB20A9F706C080E290E0B3010E948D
:100A90006B05EA94EE20C1F74ACEF30166817781B7
:100AA000CB012B96E2E10C946F2BFC010590615079
:100AB00070400110D8F7809590958E0F9F1F089574
:100AC000FC016150704001900110D8F7809590951D
:100AD0008E0F9F1F08950F931F93CF93DF938C0169
:100AE000EB018B8181FF1BC082FF0DC02E813F81F6
:100AF0008C819D812817390764F4E881F98101937D
:100B0000F983E88306C0E885F985802F0995892B4C
:100B100031F48E819F8101969F838E8302C00FEFF7
:100B20001FEFC801DF91CF911F910F910895FA0136
:100B3000AA27283051F1203181F1E8946F936E7F1C
:100B40006E5F7F4F8F4F9F4FAF4FB1E03ED0B4E00D
:100B50003CD0670F781F891F9A1FA11D680F791F4E
:100B60008A1F911DA11D6A0F711D811D911DA11D5F
:100B700020D009F468943F912AE0269F112430196F
:100B8000305D3193DEF6CF010895462F4770405D0A
:100B90004193B3E00FD0C9F7F6CF462F4F70405DB9
:100BA0004A3318F0495D31FD4052419302D0A9F714
:100BB000EACFB4E0A6959795879577956795BA950E
:100BC000C9F700976105710508959B01AC010A2ED4
:100BD00006945795479537952795BA95C9F7620FAB
:100BE000731F841F951FA01D08958091F201883501
:100BF00019F420E030E207C0992787FD9095382F3F
:100C00002227205030418091F301883559F09927EF
:100C100087FD9095C09744E0880F991F4A95E1F7AA
:100C2000280F391F8091F401883531F0992787FD0D
:100C30009095C097280F391FC901089581309105FB
:100C400041F46F5F7F4F71F48AEC91E00E945D1375
:100C50000895892B39F46F5F7F4F21F48AEC91E07E
:100C60000E947013089580E090E06FEF7FEF0E9484
:100C70001E06089581E090E06FEF7FEF0E941E0650
:100C800008950F931F93DF93CF93CDB7DEB7E79708
:100C90000FB6F894DEBF0FBECDBF00E010E08EEEC1
:100CA00092E00E94D30F892B69F483E1083818077A
:100CB00049F06AE070E080E090E00E94330C065F4B
:100CC0001F4FEDCF8E010F5F1F4FC80169E770E026
:100CD0000E946F028EEE92E0B8010E94B10EC80130
:100CE00068E670E00E946F028EEE92E0B8010E940A
:100CF000B10EE7960FB6F894DEBF0FBECDBFCF9111
:100D0000DF911F910F910895BF92CF92DF92EF92E2
:100D1000FF920F931F93CF93DF93F89472EFE72E18
:100D200071E0F72EC4E6D0E068E5B62E6E018FE5DF
:100D300095E0BE010E94BD23F701808301E010E031
:100D40000FC06AE070E080E090E00E94330C8FE515
:100D500095E0B6010E94BD23F70180830F5F1F4F0E
:100D6000F701808180538A3020F00330110549F764
:100D700014C021960894E11CF11CC736D105B1F6C8
:100D80001092F5017894DF91CF911F910F91FF9010
:100D9000EF90DF90CF90BF900895F701B082E9CF38
:100DA0006F927F928F929F92AF92BF92CF92DF927B
:100DB000EF92FF920F931F93CF93DF935C01380163
:100DC00049010E94DF2324E6E50119922A95E9F7FB
:100DD000EDB7FEB7F2970FB6F894FEBF0FBEEDBFAA
:100DE0003196CDB7DEB7BA82A9822BEA30E03383E1
:100DF000228321E531E03583248322EF31E03783FC
:100E0000268380569F4F9187808703979387828799
:100E10000397958784870996978786870396918B92
:100E2000808B0396938B828B648A758A868A978AD5
:100E3000C08ED18EE28EF38E2091C4013091C50117
:100E40004091C6015091C701248F358F468F578F2F
:100E500020915001332727FD309531A320A38159DC
:100E6000904093A382A30F9695A384A3029697A381
:100E700086A30F9691A780A7889693A782A78A54E6
:100E8000904095A784A78B5B9F4F97A786A7875411
:100E9000904091AB80AB0E945B03D5010D90002088
:100EA000E9F71197AA19BB091A2FE501CA0FD11D3D
:100EB0001882EDB7FEB7F2960FB6F894FEBF0FBEDC
:100EC000EDBFC50101966A2F70E00E94CE23282F46
:100ED000803168F400D000D000D0ADB7BEB7119615
:100EE000EDB7FEB7D283C18380E091E00CC000D0A3
:100EF00000D000D0ADB7BEB71196EDB7FEB7D28324
:100F0000C18385E091E0ED019B838A832C831D8260
:100F10000E943703EDB7FEB736960FB6F894FEBFC2
:100F20000FBEEDBF812FDF91CF911F910F91FF90E9
:100F3000EF90DF90CF90BF90AF909F908F907F9079
:100F40006F9008950F931F93DF93CF93CDB7DEB7C4
:100F5000C354D0400FB6F894DEBF0FBECDBF9C0186
:100F60008B018DEE91E0B9010E94A702CE0101969E
:100F70006DE073E045EE51E023E10E940D128B819C
:100F80009C819093CD018093CC018D819E81AF8116
:100F9000B8858093CE019093CF01A093D001B093F8
:100FA000D10189859A85AB85BC858093D2019093C8
:100FB000D301A093D401B093D501A6EDB1E0FE0119
:100FC0003D968DE001900D928150E1F78A8D9B8DC9
:100FD0009093E4018093E301CE0101960E94701387
:100FE0008AEC91E00E94B313882381F08AEC91E0AF
:100FF000B8010E94AE0E8AEC91E069E071E00E94B7
:10100000AE0E8AEC91E00E94C2130DC08E01045E08
:101010001F4FC8016EEE70E00E946F028EEE92E0EC
:10102000B8010E94AE0ECD5BDF4F0FB6F894DEBF65
:101030000FBECDBFCF91DF911F910F910895CF9239
:10104000DF92EF92FF920F931F93DF93CF93CDB771
:10105000DEB7C25BD0400FB6F894DEBF0FBECDBF87
:101060000E94C6240E94A525892B09F482C2A89556
:101070000E94C423892B09F47CC28091F80182FD6F
:101080002EC08E010F5F1F4FC80161E171E00E9409
:101090006F028EEE92E0B8010E94AE0E8DE093E0FA
:1010A0006AE00E943213882329F08091F80184605D
:1010B0008093F8018091F8018E010F5F1F4F82FF2E
:1010C00004C0C8016DE171E003C0C8016EE271E0C7
:1010D0000E946F028EEE92E0B8010E94AE0E0E9456
:1010E00088256B017C010E94E3256091C00170910D
:1010F000C1018091C2019091C301FB01EE0FFF1F5E
:10110000EE0FFF1FE057FE4FC082D182E282F382D2
:101110006F5F7F4F8F4F9F4F2CE030E040E050E0FB
:101120000E94312B6093C0017093C1018093C20172
:101130009093C301E0E9F1E000E010E020E030E04E
:1011400081919191A191B191080F191F2A1F3B1F05
:1011500081E0E03CF807A1F78091C4019091C501BE
:10116000A091C601B091C7018C0D9D1DAE1DBF1D84
:101170008093C4019093C501A093C601B093C701A9
:101180004091C8015091C9014C30510554F486E595
:10119000809350014F5F5F4F5093C9014093C80146
:1011A0000AC0011511052105310511F486E501C0BC
:1011B00081E480935001A9EFB1E084E6FD01119232
:1011C0008A95E9F7E091C001F091C101EE0FFF1F90
:1011D000EE0FFF1FE057FE4F408151816281738106
:1011E000CD010E94D0068091F6019091F701892BE4
:1011F00009F02BC10E94DF23FC018689813409F0AC
:1012000024C181E090E09093F7018093F60185EE90
:1012100091E062EF71E00E94A70285EE91E06BE041
:1012200071E00E9488020E94DF23BC01645B7F4F53
:1012300085EE91E042E050E00E94AE020E94DF2382
:10124000BC01665B7F4F85EE91E042E050E00E947A
:10125000AE028DEE91E067E571E00E94A702CE013B
:101260004A966DE073E045EE51E023E10E940D12D5
:101270008C8D9D8D9093CD018093CC018E8D9F8D13
:10128000A8A1B9A18093CE019093CF01A093D001E2
:10129000B093D1018AA19BA1ACA1BDA18093D20141
:1012A0009093D301A093D401B093D501A6EDB1E002
:1012B000FE01B6968DE001900D928150E1F78BA969
:1012C0009CA99093E4018093E301CE014A960E9489
:1012D00070138AEC91E00E94B313882371F18EEEB3
:1012E00092E06DE071E00E94AE0E8EEE92E065EE4F
:1012F00071E00E94B10E8AEC91E069E071E00E9419
:10130000AE0E8E0105591F4FC80160E471E00E94C6
:101310006F028AEC91E0B8010E94AE0EC80166E54A
:1013200071E00E946F028AEC91E0B8010E94B10E58
:101330008AEC91E00E94C2130DC08E0105571F4F29
:10134000C8016EEE70E00E946F028EEE92E0B8016E
:101350000E94AE0E8DEE91E06CE571E00E94A70256
:10136000CE01C5966DE073E045EE51E023E10E94A9
:101370000D128FA998AD9093CD018093CC0189ADCA
:101380009AADABADBCAD8093CE019093CF01A0934D
:10139000D001B093D101FE01FD9680819181A2819F
:1013A000B3818093D2019093D301A093D401B093E1
:1013B000D501A6EDB1E0FE01EF5BFF4F8DE001909E
:1013C0000D928150E1F7FE01E25BFF4F8081918138
:1013D0009093E4018093E301CE01C5960E947013BF
:1013E0008AEC91E00E94B313882311F18AEC91E01A
:1013F00069E071E00E94AE0E8E0105591F4FC801D1
:1014000060E471E00E946F028AEC91E0B8010E94F2
:10141000AE0EC80166E571E00E946F028AEC91E0B1
:10142000B8010E94B10E8AEC91E00E94C2130DC077
:101430008E0105571F4FC8016EEE70E00E946F02CB
:101440008EEE92E0B8010E94AE0E8091F60190916E
:10145000F701892B39F48EEE92E068E171E00E9489
:10146000AE0E6EC08DEE91E067E571E00E94A702BE
:101470008E01005B1F4FC8016DE073E045EE51E047
:1014800023E10E940D12F801828193819093CD0196
:101490008093CC0184819581A681B7818093CE0110
:1014A0009093CF01A093D001B093D1018085918515
:1014B000A285B3858093D2019093D301A093D401E8
:1014C000B093D501A6EDB1E03C968DE001900D9270
:1014D0008150E1F7FE01E05BFF4F818D928D90938B
:1014E000E4018093E301CF010E9470138AEC91E044
:1014F0000E94B313882389F08AEC91E069EF71E0D0
:101500000E94AE0E8AEC91E069E071E00E94AE0E9E
:101510008AEC91E00E94C2130DC08E0105571F4F47
:10152000C8016EEE70E00E946F028EEE92E0B8018C
:101530000E94AE0E8CE591E069EF71E00E94A20777
:101540008EEE92E069EF71E00E94B10E80E00E94A1
:101550007D296AE070E080E090E00E94330C8FEF1C
:101560009FEF69EF71E044E60E94692981E00E94E3
:101570007D29CE54DF4F0FB6F894DEBF0FBECDBF2E
:10158000CF91DF911F910F91FF90EF90DF90CF905F
:1015900008950F931F93DF93CF93CDB7DEB7A29734
:1015A0000FB6F894DEBF0FBECDBF8EEE92E040E8DE
:1015B00055E260E070E00E94560F89E228E130E0D9
:1015C0000FB6F894A895209360000FBE809360003A
:1015D000A8950E9441068E010D5F1F4FC80160E46F
:1015E00071E00E946F028EEE92E0B8010E94AE0E92
:1015F000C80166E571E00E946F028EEE92E0B801CC
:101600000E94B10E8AE061E00E94D10C8AE061E0A4
:101610000E94100D81E161E00E94D10C81E161E046
:101620000E94100D84E061E00E94D10C84E060E033
:101630000E94100D81E090E048E853E160E070E026
:101640000E94F6258EEE92E069EF71E00E94E2239F
:101650000E948406C80160E771E00E946F028EEE6E
:1016600092E0B8010E94AE0E8EEE92E062EF71E061
:101670000E94B10E2091C2063091C306CE010196A0
:101680002115310519F4865C964002C0821B930B2C
:101690009A83898369817A818EEE92E04AE050E0F4
:1016A0000E948F0E0E94922A84E10E94A3290E9428
:1016B000F5058C018EEE92E061E271E00E94AE0EC3
:1016C0008EEE92E0B80140E150E00E94320EC80177
:1016D0000E947F2A8E010D5F1F4FC80161E171E0FA
:1016E0000E946F028EEE92E0B8010E94AE0E8DE075
:1016F00093E06AE00E943213882329F08091F80178
:1017000084608093F8018091F8018E010D5F1F4F76
:1017100082FD0BC0C8016DE171E00E946F028EEE88
:1017200092E0B8010E94B10E0AC0C8016EE271E0F9
:101730000E946F028EEE92E0B8010E94AE0E86E526
:10174000809350011092C9011092C8012091C206E5
:101750003091C306CE0101962115310519F4865C3E
:10176000964002C0821B930B9A83898369817A8198
:101770008EEE92E04AE050E00E948F0E0E94E32538
:101780008EEE92E06AE271E00E94B10EA2960FB670
:10179000F894DEBF0FBECDBFCF91DF911F910F91A7
:1017A00008951F920F920FB60F9211242F933F931B
:1017B0004F935F936F937F938F939F93AF93BF9359
:1017C0002091610230916202409163025091640263
:1017D00070916502DA01C9010296A11DB11D672F42
:1017E0006A5F6D3730F06D57DA01C9010396A11DAC
:1017F000B11D609365028093610290936202A09391
:101800006302B093640280915D0290915E02A091A8
:101810005F02B09160020196A11DB11D80935D022F
:1018200090935E02A0935F02B0936002BF91AF916C
:101830009F918F917F916F915F914F913F912F91E8
:101840000F900FBE0F901F9018958FB7F8942091AE
:1018500061023091620240916302509164028FBF35
:10186000B901CA0108959B01AC017FB7F89480913A
:101870005D0290915E02A0915F02B091600266B538
:10188000A89B05C06F3F19F00196A11DB11D7FBF38
:10189000BA2FA92F982F8827860F911DA11DB11D42
:1018A00063E0880F991FAA1FBB1F6A95D1F7BC017F
:1018B0002DC0FFB7F89480915D0290915E02A091D7
:1018C0005F02B0916002E6B5A89B05C0EF3F19F03A
:1018D0000196A11DB11DFFBFBA2FA92F982F8827F0
:1018E0008E0F911DA11DB11DE3E0880F991FAA1F46
:1018F000BB1FEA95D1F7861B970B885E9340C8F211
:10190000215030404040504068517C4F21153105F6
:101910004105510571F60895019739F0019729F0B5
:10192000880F991F01970197F1F70895789484B56E
:10193000826084BD84B5816084BD85B5826085BDCB
:1019400085B5816085BDEEE6F0E0808181608083B1
:10195000E1E8F0E010828081826080838081816094
:101960008083E0E8F0E0808181608083E1EBF0E05B
:10197000808184608083E0EBF0E0808181608083FF
:10198000EAE7F0E0808184608083808182608083E8
:101990008081816080838081806880831092C10013
:1019A0000895CF93DF93482F50E0CA0182559E4F90
:1019B000FC01349146565E4FFA018491882369F107
:1019C00090E0880F991FFC01E458FE4FA591B49157
:1019D000FC01EA57FE4FC591D491662351F42FB70D
:1019E000F8948C91932F909589238C9388818923E7
:1019F0000BC0623061F42FB7F8948C91932F9095BF
:101A000089238C938881832B88832FBF06C09FB73F
:101A1000F8948C91832B8C939FBFDF91CF91089585
:101A2000482F50E0CA018E539E4FFC012491CA01F9
:101A300082559E4FFC01949146565E4FFA013491B7
:101A4000332309F43DC0222339F12130A9F022309B
:101A5000B1F0233039F0243049F02630A1F027309E
:101A6000D9F415C0809180008F7703C080918000E9
:101A70008F7D8093800010C084B58F7702C084B5BD
:101A80008F7D84BD09C08091B0008F7703C08091A5
:101A9000B0008F7D8093B000E32FF0E0EE0FFF1FCA
:101AA000EA57FE4FA591B4912FB7F894662321F41D
:101AB0008C919095892302C08C91892B8C932FBF98
:101AC0000895CF92DF92EF92FF920F931F93CF93DF
:101AD000DF937C016B018A01C0E0D0E00FC0D6012A
:101AE0006D916D01D701ED91FC910190F081E02D98
:101AF000C7010995C80FD91F0150104001151105E4
:101B000071F7CE01DF91CF911F910F91FF90EF9070
:101B1000DF90CF900895EF92FF920F931F938C0167
:101B2000DC01ED91FC910190F081E02D6DE00995D3
:101B30007C01D801ED91FC910190F081E02DC8016C
:101B40006AE009959C012E0D3F1DC9011F910F915F
:101B5000FF90EF900895CF93DF93DB010D9000206D
:101B6000E9F71197A61BB70BEC01E881F981028018
:101B7000F381E02DAD010995DF91CF9108954F924A
:101B80005F927F928F929F92AF92BF92CF92DF929D
:101B9000EF92FF920F931F93DF93CF93CDB7DEB7F2
:101BA000A1970FB6F894DEBF0FBECDBF2C01742EE7
:101BB000CB01223008F42AE019A231E2C32ED12C45
:101BC000CC0EDD1E822E9924AA24BB24672D752FEE
:101BD000A50194010E94312B79018A01C801B70146
:101BE000A50194010E94122B472D461B0894C108A1
:101BF000D1084A3014F4405D01C0495CF6014083CD
:101C0000E114F1040105110521F07E2C5F2DC801BE
:101C1000DDCFC201B6010E94AB0DA1960FB6F894BC
:101C2000DEBF0FBECDBFCF91DF911F910F91FF900F
:101C3000EF90DF90CF90BF90AF909F908F907F906C
:101C40005F904F900895DC012115310541F4ED912D
:101C5000FC910190F081E02D642F099508950E9478
:101C6000BF0D0895CF92DF92EF92FF920F931F93D3
:101C70006C017B019A0100E010E0B801A7010E940D
:101C8000230E8C01C6010E948B0D080F191FC8017D
:101C90001F910F91FF90EF90DF90CF900895CF921A
:101CA000DF92EF92FF920F931F93CF93DF93EC019C
:101CB0006A017B012115310541F4E881F981019028
:101CC000F081E02D642F09951FC02A303105D1F431
:101CD00077FF17C0E881F9810190F081E02D6DE276
:101CE00009958C0144275527BA014C195D096E09E5
:101CF0007F09CE012AE00E94BF0D9801280F391FED
:101D000004C02AE00E94BF0D9C01C901DF91CF9160
:101D10001F910F91FF90EF90DF90CF900895CF9299
:101D2000DF92EF92FF920F931F936C017B019A0158
:101D30000027F7FC0095102FB801A7010E944F0E55
:101D40008C01C6010E948B0D080F191FC8011F913D
:101D50000F91FF90EF90DF90CF9008950E94AB0D10
:101D60000895EF92FF920F931F937C010E94AB0D99
:101D70008C01C7010E948B0D080F191FC8011F910C
:101D80000F91FF90EF900895CF93DF930E94960CF0
:101D90000E94C90AC8E0DFE00E941F082097E1F313
:101DA0000E94080FF9CF08951F920F920FB60F925D
:101DB00011242F933F934F938F939F93EF93FF9310
:101DC0004091C6002091A6023091A7022F5F3F4F9D
:101DD0002F7330708091A8029091A90228173907BB
:101DE00059F0E091A602F091A702EA59FD4F408315
:101DF0003093A7022093A602FF91EF919F918F91BC
:101E00004F913F912F910F900FBE0F901F901895FB
:101E1000E091FA02F091FB02E05CFF4F8191919119
:101E200020813181821B930B8F739070892B11F06D
:101E30000E94D30E08951F920F920FB60F92112495
:101E40002F933F938F939F93EF93FF932091EA02F9
:101E50003091EB028091EC029091ED022817390746
:101E600031F48091C1008F7D8093C10014C0E09156
:101E7000EC02F091ED02E655FD4F20818091EC02DD
:101E80009091ED0201968F7390709093ED02809384
:101E9000EC022093C600FF91EF919F918F913F91AB
:101EA0002F910F900FBE0F901F901895AF92BF9279
:101EB000DF92EF92FF920F931F93CF93DF93EC018A
:101EC0007A018B01DD24D39491E0A92EB12CEC8909
:101ED000FD89DD2069F0C5010E8C02C0880F991FB5
:101EE0000A94E2F7808360E874E88EE190E005C030
:101EF000108260E472E48FE090E0A80197010E94F4
:101F0000312B2150304040405040569547953795F1
:101F1000279580E12030380720F0DD2011F0DD2406
:101F2000D6CFE889F9893083EA89FB892083EE8955
:101F3000FF89408121E030E0C9010A8C02C0880F8E
:101F4000991F0A94E2F7482B4083EE89FF8940816C
:101F5000C9010B8C02C0880F991F0A94E2F7482B25
:101F60004083EE89FF894081C9010C8C02C0880F33
:101F7000991F0A94E2F7482B4083EE89FF898081FC
:101F80000D8C02C0220F331F0A94E2F720952823FC
:101F90002083DF91CF911F910F91FF90EF90DF9001
:101FA000BF90AF900895CF93DF93EC01EC85FD8552
:101FB000E05CFF4F2191319180819181281B390B89
:101FC0002F733070C901DF91CF910895CF93DF93C4
:101FD000EC01EC85FD85E05CFF4F20813181E05410
:101FE000F040DF01AE5BBF4F8D919C911197281798
:101FF000390719F42FEF3FEF07C08D919C91E80F3F
:10200000F91F8081282F30E0C901DF91CF91089519
:10201000CF93DF93EC01EC85FD85E05CFF4F2081E1
:102020003181E054F040DF01AE5BBF4F8D919C9158
:1020300011972817390719F42FEF3FEF10C08D9132
:102040009C911197E80FF91F20818D919C91119718
:1020500001968F73907011969C938E9330E0C90116
:10206000DF91CF910895FC0186859785DC01A05C06
:10207000BF4FFC01EE5BFF4F2D913C91119780818A
:10208000918128173907C1F70895CF93DF93EC01A9
:10209000EE85FF85E05CFF4F20813181E054F04008
:1020A0002F5F3F4F2F733070DF01AE5BBF4F8D91BD
:1020B0009C91119728173907D1F3E05CFF4F80817D
:1020C0009181E054F040E80FF91F6083EE85FF85B1
:1020D000E05CFF4F31832083EE89FF89208181E01E
:1020E00090E00D8C02C0880F991F0A94E2F7282B0C
:1020F000208381E090E0DF91CF9108951092F1026A
:102100001092F00288EE93E0A0E0B0E08093F2023B
:102110009093F302A093F402B093F50289E691E064
:102120009093EF028093EE0286E692E09093FB029A
:102130008093FA028AEA92E09093FD028093FC0277
:1021400085EC90E09093FF028093FE0284EC90E097
:10215000909301038093000380EC90E0909303033D
:102160008093020381EC90E0909305038093040335
:1021700086EC90E0909307038093060384E08093BD
:10218000080383E08093090387E080930A0385E0D6
:1021900080930B0381E080930C0308951092120347
:1021A00010921303109216031092180382E090E02D
:1021B000A0E0B0E08093190390931A03A0931B034F
:1021C000B0931C031092300310923A03109239031B
:1021D00089E891E0909338038093370310923C0391
:1021E00008952F923F924F925F926F927F928F92BB
:1021F0009F92AF92BF92CF92DF92EF92FF920F9396
:102200001F93DF93CF93CDB7DEB7C754D0400FB63F
:10221000F894DEBF0FBECDBF582E492EFB013A0108
:10222000190184A595A5998B888B29E831E03F8712
:102230002E8786A58A8B87A58B8B80A991A9A2A9B9
:10224000B3A98C8B9D8BAE8BBF8B84A995A9A6A9B6
:10225000B7A9888F998FAA8FBB8F80AD91ADA2ADA2
:10226000B3AD8C8F9D8FAE8FBF8F84AD88A3FD964D
:1022700081919191A191B19189A39AA3ABA3BCA3A0
:1022800081919191A191B1918DA39EA3AFA3B8A784
:10229000808191819AA789A71EA61DA63CA72BA77E
:1022A00018AA7A018E01025F1F4F3BE2A32EB12CC8
:1022B000AC0EBD1E4E010894811C911C35C0F70167
:1022C00080818F3221F40894E11CF11C2DC0422F33
:1022D0004E194D3008F04CE0C42EDD24C401B70186
:1022E000A6010E94BE02F401EC0DFD1D1082C50185
:1022F0000E94DA15C501B801A40121E00E94FB1A71
:10230000882351F4E52DF42D1382128289E891E09F
:1023100091838083158265C0EC0CFD1CC8010E946E
:10232000DA15C50158018C01C7016FE270E00E9407
:1023300093029C01009719F6E618F708F101F18263
:10234000E082252D342DF80182819381F901938358
:10235000828389E891E091838083F8018481F90187
:102360008483F8018581F9018583F801868197814D
:10237000A085B185F90186839783A087B187F8018D
:1023800082859385A485B585F90182879387A48783
:10239000B587F80186859785A089B189F901868777
:1023A0009787A08BB18BF8018289F901828BF801A4
:1023B00083899489A589B689F901838B948BA58B30
:1023C000B68BF8018789908DA18DB28DF901878B2D
:1023D000908FA18FB28FF801838D948DF901948F26
:1023E000838F852D942DC95BDF4F0FB6F894DEBF28
:1023F0000FBECDBFCF91DF911F910F91FF90EF9056
:10240000DF90CF90BF90AF909F908F907F906F9014
:102410005F904F903F902F9008959F92AF92BF9200
:10242000CF92DF92EF92FF920F931F93DF93CF93A0
:10243000CDB7DEB7C657D0400FB6F894DEBF0FBE9B
:10244000CDBFC82E992E8A01D22E43E0A42EB12CE6
:10245000AC0EBD1EC501A8019E012F5F3F4F0E941B
:10246000F110E980FA80E00EF11EF701808149E861
:1024700051E02885882309F03FC08D819E819BA370
:102480008AA359A348A38F818CA32DA389859A85FC
:10249000AB85BC858EA39FA3A8A7B9A78D859E8574
:1024A000AF85B8898AA79BA7ACA7BDA789899A8958
:1024B000AB89BC898EA79FA7A8ABB9AB8D898AAB26
:1024C0008E899F89A88DB98D8BAB9CABADABBEAB14
:1024D0008A8D9B8DAC8DBD8D8FAB98AFA9AFBAAFF8
:1024E0008E8D9F8D9CAF8BAF8C2D992DBE01605E24
:1024F0007F4F48E351E09FC0FE01FF96118210829A
:102500005EAF4DAFFE01EE5BFF4F10822223A9F0BC
:102510002250CE01CD96223048F467E373E0A70144
:102520002D2D0E94FB1A882381F407C0B501A70155
:102530002D2D0E94FB1A882329F48C2D992D0E94A1
:102540005D137BC0C5010E94DA15F6E0DF2259F069
:10255000FE01E05BFF4F4081518162817381CE01BA
:10256000CD960E94CA149E01265A3F4FFE01FF9647
:1025700080819181F9019383828389E891E091833D
:102580008083FE01EF5BFF4F8081F9018483FE01B0
:10259000EE5BFF4F8081F9018583FE01ED5BFF4F0C
:1025A00080819181A281B381F90186839783A0877D
:1025B000B187FE01E95BFF4F80819181A281B381E8
:1025C000F90182879387A487B587FE01E55BFF4FFA
:1025D00080819181A281B381F90186879787A08B41
:1025E000B18BFE01E15BFF4F8081F901828BFE011F
:1025F000E05BFF4F80819181A281B381F901838BE0
:10260000948BA58BB68BFE01EC5AFF4F8081918194
:10261000A281B381F901878B908FA18FB28FFE01C8
:10262000E85AFF4F80819181F901948F838F8C2D1F
:10263000992DB901A7010E9450148C2D992DCA58CB
:10264000DF4F0FB6F894DEBF0FBECDBFCF91DF9145
:102650001F910F91FF90EF90DF90CF90BF90AF90C0
:102660009F9008950F931F93CF93DF93EC01462F14
:1026700061E00E94271E8823D1F08E01045F1F4F66
:10268000C801BE0141E00E94941F882339F4C801AB
:10269000BE0140E00E94941F882349F0CE018A9633
:1026A000B8010E940118882319F081E001C080E080
:1026B000DF91CF911F910F910895FC011382128237
:1026C00088EE93E0A0E0B0E084839583A683B7838F
:1026D00089E791E091838083128E118E148608958C
:1026E000FC0189E791E0918380830895DF93CF9384
:1026F0000F92CDB7DEB76983FC01A081B181FD01E6
:1027000022813381BE016F5F7F4F41E050E0F901CC
:1027100009950F90CF91DF910895CF93DF93EC014E
:10272000E98DFA8D309719F420E030E018C0238944
:1027300034894589568982859385A485B585281B6A
:10274000390B4A0B5B0B203080E8380780E04807E4
:1027500080E0580720F02FEF3FE740E050E0C9014C
:10276000DF91CF910895CF93DF93EC01E98DFA8D3E
:10277000309711F480E003C08581811181E0DF9101
:10278000CF910895CF93DF93EC01898D9A8D0097B7
:1027900041F00E94DA15898D9A8D0E9416021A8ED8
:1027A000198EDF91CF910895FC01818D928D009754
:1027B00011F00E9490150895DF93CF930F92CDB73B
:1027C000DEB7FC01818D928D009749F0BE016F5FED
:1027D0007F4F41E050E00E94A216019719F02FEFC1
:1027E0003FEF03C08981282F30E0C9010F90CF91BE
:1027F000DF910895EF92FF920F931F93DF93CF9392
:102800000F92CDB7DEB77C01FC01818D928D0097D0
:1028100019F400E010E01EC0BE016F5F7F4F41E081
:1028200050E00E94A216019719F00FEF1FEF12C09F
:102830008981082F10E0F701A18DB28DFD0142853D
:102840005385648575854150504060407040CD018E
:102850000E94CA14C8010F90CF91DF911F910F9170
:10286000FF90EF900895CF93DF93EC01E98DFA8DFF
:10287000309761F013821282CF010E94E7189C0109
:10288000E98DFA8D82819381892B31F081E090E08E
:102890009B838A8320E030E0C901DF91CF910895C6
:1028A000EF92FF920F931F93CF93DF93EC01F62EDD
:1028B000E72E8A011B821A8288EE93E0A0E0B0E046
:1028C0008C839D83AE83BF8389E791E0998388835E
:1028D0008DE190E00E946D019A8F898F009791F0B1
:1028E000DC018F2D9E2D9C01F9018DE101900D924F
:1028F0008150E1F7CE010C96B8014CE050E00E9407
:10290000BE02188EDF91CF911F910F91FF90EF9033
:102910000895CF93DF93EC01DB0180E090E020E2AB
:10292000FD01E80FF91F208301968B309105C1F757
:1029300057E040E021C02E3219F086ED91E007C04B
:102940005A3019F15AE048E017C03217F1F0FC0193
:10295000019634913323C9F75417B8F02132A8F007
:102960002F3798F4822F81568A3108F42052FD01C6
:10297000E40FF11D20834F5F29912223E1F690E0BF
:102980008C91803219F091E001C090E0892FDF91A5
:10299000CF9108956F927F928F929F92AF92BF9244
:1029A000CF92DF92EF92FF920F931F93CF93DF931B
:1029B000EC017A018B012D81222309F480C08B89DF
:1029C0009C89AD89BE8984179507A607B70708F4C7
:1029D00076C085C0E114F1040105110549F41E8299
:1029E0001F82188619861A861B861C861D8665C05E
:1029F0002A853B854C855D85EB8DFC8D858590E03A
:102A00000996215030404040504039014A01082E7B
:102A100004C096948794779467940A94D2F72F5FB2
:102A20003F4F4F4F5F4F0894E108F108010911092A
:102A30005701680104C0D694C794B794A7948A95A7
:102A4000D2F70894E11CF11C011D111DA614B70456
:102A5000C804D90428F0211531054105510549F470
:102A60008F89988DA98DBA8D8E839F83A887B9870A
:102A700016C0A618B708C808D90811C04E815F81D2
:102A8000688579858B8D9C8D94010E9475210894B1
:102A9000A108B108C108D108882331F410C086E02C
:102AA000882E912C8C0E9D1EA114B104C104D1045A
:102AB00029F7EA86FB860C871D8781E001C080E04C
:102AC000DF91CF911F910F91FF90EF90DF90CF900A
:102AD000BF90AF909F908F907F906F90089522301D
:102AE00009F078CFE6CFCF93DF93EC01462F6E85C8
:102AF0007F85888999890E94591F882319F420E0CD
:102B000030E00AC08A89282F30E095E0220F331F79
:102B10009A95E1F7285A3C4FC901DF91CF9108956A
:102B20000F931F93CF93DF938C01FC018581882342
:102B3000D9F1848187FF35C0C80161E00E94731517
:102B4000EC01009789F1F8018581823040F4838996
:102B50009489A589B6898C8F9D8FAE8FBF8FF80120
:102B60008789908D9B8F8A8F8789908DA18DB28D5B
:102B7000CD01AA27BB279D8B8C8BE0915603F0914A
:102B80005703309751F0BE016A5E7F4FCE014896E1
:102B90000995888D998D9B8B8A8BF80184818F771D
:102BA00084830E94FA1E01C080E0DF91CF911F91C3
:102BB0000F910895CF93DF93EC010E949015882325
:102BC00011F01D8281E0DF91CF9108956F927F9285
:102BD0008F929F92AF92BF92CF92DF92EF92FF922D
:102BE0000F931F93DF93CF9300D000D0CDB7DEB704
:102BF0007C015A016B01FC018581813009F082C0A2
:102C0000848181FF7FC092C00097A105B10511F4B6
:102C100081E079C0F7016284738484849584C7015C
:102C2000B601A5010E94CA14882309F46BC0F701FC
:102C3000838D948DA114B104C104D10479F4478922
:102C4000508D618D728D0E94E821882309F45AC04D
:102C5000F701178A108E118E128E3AC0F701468145
:102C60005781608571859E012F5F3F4F0E947521BE
:102C7000882309F447C0F701238D348D49815A8197
:102C80006B817C81F9018789803129F088EF9FEF82
:102C9000AFEFBFE004C088EF9FEFA0E0B0E04817BF
:102CA00059076A077B07A0F4C9010E94E82188231D
:102CB00049F1F7014681578160857185838D948D37
:102CC0000FEF1FEF2FEF3FE00E94D9208823D1F0B4
:102CD000F701A38AB48AC58AD68A848180688483EE
:102CE000C7010E949015882369F0B601A5016A14F6
:102CF0007B048C049D0410F4B401A301C7010E945D
:102D0000CA1401C080E00F900F900F900F90CF91E8
:102D1000DF911F910F91FF90EF90DF90CF90BF90C8
:102D2000AF909F908F907F906F900895F701838967
:102D30009489A589B68984179507A607B70708F06F
:102D400063CFE0CF2F923F924F925F926F927F922C
:102D50008F929F92AF92BF92CF92DF92EF92FF92AB
:102D60000F931F93CF93DF93EC012A018D8188236A
:102D700009F4C6C08C8180FFC3C0D8C025014E189D
:102D80005F084B0176E0272E312C2C0E3D1E3201C0
:102D9000B1C02A853B854C855D856FEFA62E61E02D
:102DA000B62EA222B3228D8179018A0199E016956F
:102DB0000795F794E7949A95D1F7EB8DFC8D8230C7
:102DC00049F4428D538D648D758D4E0D5F1D601FCE
:102DD000711F3FC0D480DA94DE20A114B104D9F46D
:102DE000DD20C9F4211531054105510549F48F89CC
:102DF000988DA98DBA8D8E839F83A887B9870BC0C4
:102E00004E815F8168857985CF0191010E9475218E
:102E1000882309F475C0EB8DFC8D4E815F81688538
:102E200079854250504060407040058404C0440F92
:102E3000551F661F771F0A94D2F786859785A0894C
:102E4000B189480F591F6A1F7B1F4D0D511D611D10
:102E5000711D80E092E08A199B0963018615970530
:102E600008F46C018C8186FD06C080E0C81682E003
:102E7000D80609F073C08091610190916201A09120
:102E80006301B0916401481759076A077B0709F489
:102E900065C080915805909159059501860174018E
:102EA0000E947A1D882361F18C0C9D1C12C0950133
:102EB000285A3C4FA9014C0D5D1DD401F90102C0F7
:102EC00081918D93E417F507D9F7E21BF30B8E0E72
:102ED0009F1E960140E050E08A859B85AC85BD85AC
:102EE000820F931FA41FB51F8A879B87AC87BD875E
:102EF0006C187D086114710409F04BCFA20102C067
:102F00004FEF5FEFCA01DF91CF911F910F91FF90BB
:102F1000EF90DF90CF90BF90AF909F908F907F9079
:102F20006F905F904F903F902F900895AB88BC8832
:102F3000CD88DE88EA84FB840C851D859A0140E0FB
:102F400050E0D601C5018E199F09A00BB10B821765
:102F50009307A407B50708F411CF13CFCB01BA012B
:102F600040E00E94591F882309F0A1CFC9CFCF921A
:102F7000DF92EF92FF920F931F93DF93CF930F9205
:102F8000CDB7DEB76C01FC018581823070F0E28440
:102F9000F38404851585C601BE016F5F7F4F41E054
:102FA00050E00E94A216019769F020E030E0C901CC
:102FB0000F90CF91DF911F910F91FF90EF90DF90D5
:102FC000CF900895F60182859385A485B5854F96A7
:102FD000A11DB11D82879387A487B587F5E016955B
:102FE0000795F794E794FA95D1F78E2D8F70282FD7
:102FF00030E0E5E0220F331FEA95E1F7285A3C4F15
:10300000D6CF0F931F93CF93DF93EC018B018D816C
:10301000882309F041C0FB0187898031B1F482E047
:103020008D831F8A188E198E1A8E808D918DA0E047
:10303000B0E045E0880F991FAA1FBB1F4A95D1F742
:103040008B8B9C8BAD8BBE8B15C0803229F583E0BA
:103050008D83FB01428D538D648D758D4F8B588F01
:10306000698F7A8F9E012D5E3F4FC8010E944122D9
:10307000882391F01C8F0B8F81E08C831E821F822E
:10308000188619861A861B861C861D861E861F8634
:10309000188A198A1A8A01C080E0DF91CF911F91A6
:1030A0000F9108951F93CF93DF93EC01142FE62F18
:1030B000F0E075E0EE0FFF1F7A95E1F7E85AFC4F5C
:1030C0008385817121F0842F827409F054C06A8B4A
:1030D0008091610190916201A0916301B0916401BE
:1030E0008E879F87A88BB98B84899589A0E0B0E0F3
:1030F000BC0155274427828D938DA0E0B0E0482B7A
:10310000592B6A2B7B2B4F8B588F698F7A8F838536
:1031100090E088719070009751F4848D958DA68D04
:10312000B78D8B8B9C8BAD8BBE8B81E00CC0409799
:1031300011F59E012D5E3F4F8B8D9C8D0E9441228B
:103140008823C9F084E08D83812F8F708C831E8249
:103150001F82188619861A861B861C861D8616FDF8
:1031600002C081E009C0CE0140E050E060E070E0C4
:103170000E94E61501C080E0DF91CF911F91089574
:10318000CF93DF93EC019C012A5F3F4F8B8D9C8D89
:1031900041E050E060E070E00E94B0228823A1F09E
:1031A0008F89988DA98DBA8D0097A105B10559F425
:1031B0008E819F81A885B9858F8B988FA98FBA8FB3
:1031C0008C8180688C8381E0DF91CF9108952F926C
:1031D0003F924F925F927F928F929F92AF92BF9257
:1031E000CF92DF92EF92FF920F931F93DF93CF93D3
:1031F00000D000D000D0CDB7DEB76C01162F072F5E
:103200005E834D83FC018581813009F05BC184813F
:1032100081FF58C178C1F60143895489658976894F
:1032200082859385A485B58584179507A607B7077A
:1032300031F0C6010E94CA14882309F443C1812FCA
:10324000902F9C0129012D803E800EC1F601038D37
:10325000148DDA01C901E9E0B695A7959795879590
:10326000EA95D1F7F80174807A9478227FEF872E5F
:1032700071E0972E82229322772009F049C08114B1
:10328000910409F045C0F60146815781608571853A
:10329000411551056105710571F48789908DA18DE6
:1032A000B28D0097A105B10541F1F60186839783A0
:1032B000A087B1872DC0C8019E012F5F3F4F0E949C
:1032C0007521882309F403C129813A814B815C81EE
:1032D000F601A38DB48DFD018789803129F088EF37
:1032E0009FEFAFEFBFE004C088EF9FEFA0E0B0E03A
:1032F000281739074A075B0730F0C6010E94C0183B
:10330000882331F4DFC0F601268337834087518755
:1033100080E092E08819990951018215930508F41B
:103320005C01F601238D348DE680F78000851185E0
:103330008EEF9FEFAFEFBFEFE80EF91E0A1F1B1FC6
:10334000F901058404C0EE0CFF1C001F111F0A9434
:10335000D2F786859785A089B189E80EF91E0A1FE4
:103360001B1FE70CF11C011D111DF0E0AF16F2E070
:10337000BF0651F58091610190916201A0916301B6
:10338000B09164018E159F05A007B10761F48FEF1E
:103390009FEFAFEFBFEF8093610190936201A09325
:1033A0006301B09364018091580590915905B8016B
:1033B000A70192010E941D1D882309F483C0A0E08B
:1033C000B2E04A0E5B1E3EC08114910409F5F6017D
:1033D000228533854485558583899489A589B68955
:1033E000281739074A075B0798F00E94FA1E8823BE
:1033F00009F468C0E0926101F092620100936301F8
:103400001093640180915A05816080935A0508C029
:10341000C801B70141E00E94591F882309F452C036
:103420009401285A3C4FA9014A0D5B1DD201F901B4
:1034300002C08D918193E417F507D9F7E21BF30BD6
:103440004E0E5F1E2A183B08950140E050E0F60141
:1034500082859385A485B585820F931FA41FB51F10
:1034600082879387A487B587F601228533854485B3
:1034700055852114310409F0E9CE83899489A58901
:10348000B68982179307A407B50728F4238B348BDA
:10349000458B568B0BC08091560390915703892B17
:1034A00041F08D819E81892B21F0F6018481806815
:1034B0008483F601848183FF0CC0C6010E949015AD
:1034C000882339F481E090E0F601938382831E82A1
:1034D0001D828D819E8126960FB6F894DEBF0FBEA9
:1034E000CDBFCF91DF911F910F91FF90EF90DF90B3
:1034F000CF90BF90AF909F908F907F905F904F90B4
:103500003F902F90089582FD86CE99CEDF93CF9382
:103510000F92CDB7DEB76983BE016F5F7F4F41E089
:1035200050E00E94E7180F90CF91DF910895DF924D
:10353000EF92FF920F931F93CF93DF93EC010E94C2
:10354000C018882309F44EC0EB8DFC8DEE80FF80FF
:10355000088519858EEF9FEFAFEFBFEFE80EF91EDC
:103560000A1F1B1F058404C0EE0CFF1C001F111F47
:103570000A94D2F786859785A089B189E80EF91E4D
:103580000A1F1B1FD4800894E108F10801091109E2
:103590000BC0C801B7016D0D711D811D911D0E94E9
:1035A000351F8823F9F0DA94DD2099F7EB8DFC8D37
:1035B00020E032E040E050E0058404C0220F331FD9
:1035C000441F551F0A94D2F78B899C89AD89BE8907
:1035D000820F931FA41FB51F8B8B9C8BAD8BBE8B53
:1035E00081E001C080E0DF91CF911F910F91FF90AA
:1035F000EF90DF9008956F927F928F929F92AF929B
:10360000BF92CF92DF92EF92FF920F931F93DF93BF
:10361000CF93CDB7DEB72B970FB6F894DEBF0FBEB2
:10362000CDBF5C016B01822EFC018581882309F0EE
:10363000C0C0CA018E010F5F1F4FB8010E948914DC
:10364000882309F4B6C0F601838D948DF501948F1B
:10365000838FF601168217821086118612861386D2
:1036600014861586992438013FC0C6010E94B717F9
:103670009C01009709F49DC0F5E016950795F79415
:10368000E794FA95D1F71E2D1F70FC0180818823E5
:1036900011F0853EB9F4992071F4F501128B8091F7
:1036A000610190916201A0916301B09164018687EC
:1036B0009787A08BB18BF9018081882399F4992495
:1036C000939421C0C301B9014BE050E00E947B02FA
:1036D000009751F4882D8073803309F46AC0C501C6
:1036E000612F63C099249394F601E284F3840485E6
:1036F000158583899489A589B689E816F9060A078C
:103700001B0708F4B2CF882D8271823109F051C0B5
:10371000992041F0C50161E00E9473158C0100976A
:1037200079F447C0F6018581823009F442C0C601B0
:103730000E94971A8823E9F1F501128A08E513E03F
:1037400080E2F80111928A95E9F7D801FE013196DD
:103750008BE001900D928150E1F7E0915603F091DA
:103760005703309739F0B801625F7F4FC801409628
:10377000099509C081E298E2F801918B808B80E085
:1037800098E097878687F80180899189938B828B4F
:10379000918F808F86859785978B868B0E94FA1EE6
:1037A000882339F0C501F5016289482D0E9452181D
:1037B00001C080E02B960FB6F894DEBF0FBECDBFE0
:1037C000CF91DF911F910F91FF90EF90DF90CF90FD
:1037D000BF90AF909F908F907F906F900895FC0165
:1037E000673020F086E1858380E00895262F30E061
:1037F00060FD02C0663019F48DB58E7F02C08DB5B4
:1038000081608DBD8CB58C7F8CBD4CB522FD02C016
:1038100090E001C092E036952795822F8170842B2D
:10382000892B8CBD81E00895FF920F931F93CF9356
:10383000DF938B010E94250CEB01FF24FA94FEBC60
:103840000DB407FEFDCF8EB58F3F11F481E008C0A7
:103850000E94250C6C1B7D0B6017710780F380E0C4
:10386000DF91CF911F910F91FF900895FC0184810A
:1038700060E00E94100D0895FC01848161E00E94C7
:10388000100D0895DC016EBDFA0120E030E00DB4AA
:1038900007FEFDCF80818EBD0DB407FEFDCF818177
:1038A0008EBD2E5F3F4F329682E02030380779F789
:1038B0000DB407FEFDCF8FEF8EBD0DB407FEFDCF1B
:1038C0008FEF8EBD0DB407FEFDCF8FEF8EBD0DB413
:1038D00007FEFDCF8EB5FD0182878F71853011F413
:1038E00081E0089581E1FD018583CD010E943C1CAA
:1038F00080E00895FF920F931F93CF93DF93EC0125
:103900000E94250C8B01FF24FA9409C00E94250C0B
:10391000601B710B6D52714010F08FE00DC0FEBC4A
:103920000DB407FEFDCF8EB58A878F3F79F38E3FAA
:1039300011F481E006C08DE08D83CE010E943C1C15
:1039400080E0DF91CF911F910F91FF900895CF9369
:10395000DF93EC018E818823D1F08FEF8EBD2F8114
:1039600038854FEF04C00DB407FEFDCF4EBD2F5F6D
:103970003F4FC901019781509240A8F338872F83A8
:103980000DB407FEFDCFCE010E943C1C1E82DF91CC
:10399000CF910895DF92EF92FF920F931F93CF93F1
:1039A000DF93EC01D62E79018A010E94A71CCE017B
:1039B0000E94361CCE016CE271E00E94141C8D2D19
:1039C00080648EBD0DB407FEFDCF28E130E0D80144
:1039D000C701022E04C0B695A795979587950A94BE
:1039E000D2F78EBD0DB407FEFDCF285030408FEFCB
:1039F000283F380761F7DD2011F485E906C088E02B
:103A0000D81611F487E801C08FEF8EBD0DB407FE04
:103A1000FDCF90E02FEF2EBD0DB407FEFDCF8EB58C
:103A200087FF02C09150B9F78A87DF91CF911F912C
:103A30000F91FF90EF90DF900895CF92DF92EF9279
:103A4000FF920F931F93CF93DF93EC017A018B01C9
:103A50006901411551056105710511F482E137C015
:103A60008B85833039F029E0EE0CFF1C001F111FFD
:103A70002A95D1F7CE0168E1A80197010E94CA1CDE
:103A8000882311F084E023C0CE016EEFA6010E94CE
:103A9000421C8823E9F0CE0168E572E00E94141C04
:103AA000882311F485E113C0CE016DE020E030E001
:103AB00040E050E00E94CA1C882341F48FEF8EBD85
:103AC0000DB407FEFDCF8EB5882379F084E18D8398
:103AD000CE010E943C1C80E0DF91CF911F910F919D
:103AE000FF90EF90DF90CF900895CE010E943C1C94
:103AF00081E0F2CF8F929F92AF92BF92CF92DF92EE
:103B0000EF92FF920F931F93CF93DF93EC015A0133
:103B10006B0149010115110509F47BC0C801820F31
:103B2000931F8150924008F06FC08E81882371F0FE
:103B300088819981AA81BB81481759076A077B0749
:103B400029F48F8198858816990618F5A882B9827C
:103B5000CA82DB828B85833039F069E0AA0CBB1CFA
:103B6000CC1CDD1C6A95D1F7CE0161E1A60195015F
:103B70000E94CA1C882319F083E08D8345C0CE01C2
:103B80000E947A1C882309F43FC018861F8281E0B6
:103B90008E838FEF8EBD8F8198852FEF05C00DB47A
:103BA00007FEFDCF2EBD019688159905C0F39887B5
:103BB0008F83D801119720E030E09FEF0BC00DB448
:103BC00007FEFDCF8EB5F701E20FF31F80839EBD88
:103BD0002F5F3F4F2A173B0790F30DB407FEFDCF31
:103BE0008EB5AE0DBF1D8C932F813885200F311FF0
:103BF00038872F838985882319F02050324048F078
:103C0000CE010E94A71C05C0CE010E943C1C80E092
:103C100001C081E0DF91CF911F910F91FF90EF9054
:103C2000DF90CF90BF90AF909F908F900895EF92CC
:103C3000FF920F931F93790120E030E000E012E043
:103C40000E947A1D1F910F91FF90EF900895BF92EF
:103C5000CF92DF92EF92FF920F931F93CF93DF9358
:103C6000EC01B62E1B8619861E821D824C830E9493
:103C7000250C6B018C8161E00E94D10CCE010E9469
:103C80003C1C8CE060E00E94D10C8BE061E00E9463
:103C9000D10C8DE061E00E94D10C8AE061E00E94CD
:103CA000D10C8AE061E00E94100D83E58CBD8DB5DA
:103CB0008E7F8DBD80E09FEF9EBD0DB407FEFDCFD2
:103CC0008F5F8A30C9F7CE010E94361C09C00E945E
:103CD000250C6C197D09615D774010F081E05EC0B4
:103CE000CE0160E020E030E040E050E00E94CA1CDD
:103CF000182F8A87813059F7CE0168E02AEA31E02F
:103D000040E050E00E94CA1C82FF02C01B8711C025
:103D100080E02FEF2EBD0DB407FEFDCF9EB58F5F67
:103D20008430C1F79A879A3A11F082E037C082E076
:103D30008B878B85823021F0EE24FF2487010FC012
:103D4000E12CF12C012DF0E41F2F09C00E94250C5D
:103D50006C197D09615D774010F088E01FC0CE01CD
:103D600067E320E030E040E050E00E94CA1CCE0152
:103D700069E2A80197010E94CA1C8A87882331F74B
:103D80008B85823031F5CE016AE320E030E040E0FF
:103D900050E00E94CA1C882339F086E08D83CE0152
:103DA0000E943C1C80E01CC08FEF8EBD0DB407FE4E
:103DB000FDCF8EB5807C803C11F483E08B8780E062
:103DC0009FEF9EBD0DB407FEFDCF2EB58F5F8330F4
:103DD000C1F7CE010E943C1CCE016B2D0E94EF1B4F
:103DE000DF91CF911F910F91FF90EF90DF90CF90D7
:103DF000BF90089580915A05882399F140916101FF
:103E00005091620160916301709164018091580545
:103E10009091590528E533E00E941D1D882319F172
:103E200040915B0550915C0560915D0570915E0568
:103E3000411551056105710591F0809158059091EA
:103E4000590528E533E00E941D1D882361F010927A
:103E50005B0510925C0510925D0510925E05109254
:103E60005A0581E0089580E00895EF92FF920F9344
:103E70001F937B018C010E94FA1E8823A9F0E8E5BC
:103E8000F3E0119285E0E835F807D9F7E092610197
:103E9000F0926201009363011093640180915A05CE
:103EA000816080935A0581E01F910F91FF90EF9000
:103EB0000895DF92EF92FF920F931F937B018C0185
:103EC000D42E8091610190916201A0916301B09123
:103ED00064018E159F05A007B107C1F00E94FA1E6C
:103EE0008823D9F08091580590915905B801A70110
:103EF00028E533E00E94171E882379F0E0926101E3
:103F0000F0926201009363011093640180915A055D
:103F10008D2980935A0581E001C080E01F910F91A7
:103F2000FF90EF90DF9008958F929F92AF92BF9293
:103F3000CF92DF92EF92FF920F931F93CF93DF9375
:103F40006C01142F7093590560935805442321F494
:103F500088249924540140C0453008F01CC160E019
:103F600070E080E090E040E00E94591F882309F44F
:103F700012C1C12FD0E02197FE0174E0EE0FFF1FA8
:103F80007A95E1F7E85AFC4FE254FE4F8081EE5BF0
:103F9000F14090E08F779070892B09F0FCC0E653D8
:103FA000FE4F80819181A281B38184369105A10564
:103FB000B10508F4F0C064E0CC0FDD1F6A95E1F7AD
:103FC000C25EDA4F88809980AA80BB8081149104F8
:103FD000A104B10409F4DFC0C501B40140E00E94AE
:103FE000591F882309F4D7C080916303909164031B
:103FF0008050924009F0CFC020916803222309F439
:10400000CAC08091660390916703892B09F4C3C0ED
:1040100080916503882309F4BEC0F601228B80914C
:1040200065038483158661E070E007C04F5FF60189
:1040300045874150483008F0AEC0F601458584817F
:1040400090E09B01042E02C0220F331F0A94E2F776
:104050008217930759F720916E0330916F03211552
:10406000310519F040E050E008C020917C03309108
:104070007D0340917E0350917F03F60125833683B3
:1040800047835087E0906603F090670300E010E0FC
:10409000E80CF91C0A1D1B1DE38AF48A058B168B9C
:1040A0008091690390916A03918F808F609168037A
:1040B00070E080E090E00E94122B6E0D7F1D801F4B
:1040C000911FF601628F738F848F958F2091690302
:1040D00030916A0355E0220F331F5A95E1F72150C2
:1040E0003E4F232F3327269540E050E0260F371F01
:1040F000481F591F26873787408B518B80916B0350
:1041000090916C03009719F0A0E0B0E008C0809196
:10411000780390917903A0917A03B0917B03850194
:104120007401E21AF30A040B150BA8019701280F7A
:10413000391F4A1F5B1FF601058404C05695479539
:10414000379527950A94D2F721873287438754877A
:10415000253FFFE03F07F0E04F07F0E05F0710F476
:104160008CE006C0255F3F4F4040504028F480E17E
:10417000F601878B81E010C08091840390918503C4
:10418000A0918603B0918703F601828F938FA48F4D
:10419000B58F80E2EECF80E0DF91CF911F910F913C
:1041A000FF90EF90DF90CF90BF90AF909F908F9057
:1041B00008954F925F926F927F928F929F92AF92EB
:1041C000BF92CF92DF92EF92FF920F931F93CF9304
:1041D000DF93EC016A017B0128013901423051056E
:1041E0006105710508F46FC089859A85AB85BC852A
:1041F0000196A11DB11D84179507A607B70708F4FE
:1042000062C02B893C894D895E898F89803129F470
:1042100099278F2D7E2D6D2D09C0C701B60117E09E
:1042200096958795779567951A95D1F74B015C011F
:10423000820E931EA41EB51E8091610190916201B1
:10424000A0916301B091640188169906AA06BB0685
:1042500039F0C501B40140E00E94591F882399F14B
:104260008F89803149F4F601F070EE0FFF1FE85A94
:10427000FC4F518240820DC0F601EF77F070EE0FD7
:10428000FF1FEE0FFF1FE85AFC4F408251826282EF
:10429000738280915A05816080935A058A898230A1
:1042A00080F08D819E81AF81B885880E991EAA1EEF
:1042B000BB1E80925B0590925C05A0925D05B0925A
:1042C0005E0581E001C080E0DF91CF911F910F91E9
:1042D000FF90EF90DF90CF90BF90AF909F908F9026
:1042E0007F906F905F904F900895CF92DF92EF9202
:1042F000FF920F931F93CF93DF93EC017A018B0111
:10430000690189859A85AB85BC850196A11DB11D82
:1043100084179507A607B70708F450C02B893C8976
:104320004D895E898F89803129F49927812F702FDB
:104330006F2D09C0C801B701E7E09695879577957D
:104340006795EA95D1F7260F371F481F591F8091AF
:10435000610190916201A0916301B09164012817FD
:1043600039074A075B0739F0CA01B90140E00E94EA
:10437000591F882319F18F89803159F4F701F070A2
:10438000EE0FFF1FE85AFC4F80819181A0E0B0E062
:104390000EC0F701EF77F070EE0FFF1FEE0FFF1F5B
:1043A000E85AFC4F80819181A281B381BF70F601F0
:1043B00080839183A283B38381E001C080E0DF9199
:1043C000CF911F910F91FF90EF90DF90CF900895C4
:1043D000AF92BF92CF92DF92EF92FF920F931F9313
:1043E000DF93CF9300D000D0CDB7DEB76C017A0158
:1043F0008B0182E090E0A0E0B0E0F6018083918341
:10440000A283B3835E010894A11CB11CC601B8014C
:10441000A70195010E947521882319F1C601B801F1
:10442000A70100E010E020E030E00E94D9208823BE
:10443000C1F0E980FA800B811C81F6018789803107
:1044400029F088EF9FEFAFEFBFE004C088EF9FEF48
:10445000A0E0B0E0E816F9060A071B07B8F281E011
:1044600001C080E00F900F900F900F90CF91DF91DF
:104470001F910F91FF90EF90DF90CF90BF90AF9082
:1044800008954F925F926F927F928F929F92AF9218
:10449000BF92CF92DF92EF92FF920F931F93DF9321
:1044A000CF9300D000D0CDB7DEB76C0149835A83DB
:1044B0006B837C833901EE24FF2487012E0108944D
:1044C000411C511C812CA2E09A2EA12CB12C4981B7
:1044D0005A816B817C81C60192010E9475218823DB
:1044E00051F1D501C401F601058404C0880F991F5C
:1044F000AA1FBB1F0A94D2F7E80EF91E0A1F1B1F42
:1045000029813A814B815C818789803129F088EF4C
:104510009FEFAFEFBFE004C088EF9FEFA0E0B0E0F7
:10452000281739074A075B0790F2F301E082F1820E
:104530000283138381E00F900F900F900F90CF9123
:10454000DF911F910F91FF90EF90DF90CF90BF9080
:10455000AF909F908F907F906F905F904F90089555
:104560002F923F924F925F926F927F928F929F9283
:10457000AF92BF92CF92DF92EF92FF920F931F9371
:10458000DF93CF93CDB7DEB72F970FB6F894DEBF8A
:104590000FBECDBF1C014A875B876C877D873F8735
:1045A0002E87D9010D911D912D913C910115110579
:1045B0002105310549F0480159010894811C911CDD
:1045C000A11CB11C198610C0FC0180809180A280C2
:1045D000B38019868A859B85AC85BD850197A10529
:1045E000B10511F491E09987F10181859285A38548
:1045F000B4850196A11DB11D8D839E83AF83B887BD
:10460000750164014424552432018E010F5F1F4F50
:10461000F10181859285A385B485481659066A06FD
:104620007B0608F090C08D819E81AF81B8858C1586
:104630009D05AE05BF0550F482E0882E912CA12C7B
:10464000B12CB2E0CB2ED12CE12CF12CC101B70161
:10465000A60198010E947521882309F474C08981FC
:104660009A81AB81BC81A70196012F5F3F4F4F4FCD
:104670005F4F0097A105B10519F049015A010DC01E
:10468000281939094A095B098A859B85AC85BD854E
:10469000281739074A075B0759F00894411C511C39
:1046A000611C711C0894C11CD11CE11CF11CB0CF11
:1046B000C101A601B7010FEF1FEF2FEF3FE00E94EE
:1046C000D920882399F43FC0260137010894410876
:1046D000510861087108C101B301A2019701860167
:1046E0000E94D920882379F1730162018C149D0402
:1046F000AE04BF0448F3AE85BF854D915D916D91C9
:104700007C91411551056105710539F0C101950193
:1047100084010E94D9208823B1F0EE85FF85808234
:104720009182A282B382F985FF2359F00894811CFB
:10473000911CA11CB11CD1018D929D92AD92BC9295
:10474000139781E001C080E02F960FB6F894DEBF8A
:104750000FBECDBFCF91DF911F910F91FF90EF90D2
:10476000DF90CF90BF90AF909F908F907F906F9091
:104770005F904F903F902F900895F999FECF72BDB2
:1047800061BDF89A80B5089520E030E08091600521
:10479000882311F421E030E0C9010895DC019C91E7
:1047A00021E030E007C0FD01E20FF31F8081982770
:1047B0002F5F3F4F26173707B4F3892F089583E6FD
:1047C00095E0089590936205809361051092130619
:1047D0001092600570931206609311068EEAE3E66C
:1047E000F5E0DF011D928A95E9F7089584E1EDEF88
:1047F000F5E0DF011D928A95E9F780916D059091B2
:104800006E05909307068093060680916F05909140
:10481000700590930A068093090680917105909126
:10482000720590930D0680930C068091AD059091D2
:10483000AE059093FE058093FD058091AF059091A4
:10484000B00590930106809300068091B105909188
:10485000B20590930406809303060895CF93DF93E7
:10486000EC01EC85FD85808180937705EE85FF85E1
:10487000808191819093BC058093BB05E889F9897B
:1048800080819181A281B3818093BE059093BF0501
:10489000A093C005B093C105A3ECB5E04A895B893C
:1048A000CA01FC0187E001900D928150E1F7DF9190
:1048B000CF910895CF93DF93DC01CDE6D5E0FC01E5
:1048C000828193819C01F90189E0019009928150D4
:1048D000E1F7ED01EC81FD81808180937905CBE7E3
:1048E000D5E0FD0126813781C901FC018EE00190F0
:1048F00009928150E1F7ED01E885F9858081809387
:104900008A05CCE8D5E0FD0122853385C901FC018B
:104910008EE0019009928150E1F7ED01EC85FD8573
:10492000808180939B05CDE9D5E0FD012685378503
:10493000C901FC0187E0019009928150E1F7C5EAC5
:10494000D5E0FD01808991899C01F90187E0019002
:1049500009928150E1F7CDEAD5E0FD018289938982
:104960009C01F90186E0019009928150E1F7C5EBC5
:10497000D5E0FD01848995899C01F90185E00190CC
:1049800009928150E1F7DF91CF9108959F92AF9204
:10499000BF92CF92DF92EF92FF920F931F93DF931C
:1049A000CF93CDB7DEB7A8970FB6F894DEBF0FBE92
:1049B000CDBFFE01319688E2DF011D928A95E9F7AD
:1049C0009924939493E0A92EB12CAC0EBD1E89E2DC
:1049D000C82ED12CCC0EDD1E7F0179C0809113062C
:1049E000843608F072C00091110610911206080F6B
:1049F000111DA0916105B0916205ED91FC91119797
:104A00000680F781E02DCD010995F8018083909112
:104A10001306E0911106F0911206E90FF11D808155
:104A20008A3009F04CC00E94250C609314067093E4
:104A30001506809316069093170680911306E09151
:104A40001106F0911206E80FF11D11821092130663
:104A500080911106909112066AE371E00E9476023D
:104A60009A838983850180E090E06AE371E00E9487
:104A70007602D8018D939C930C151D0521F00E5FD5
:104A80001F4F892B81F709811A81C8016CE371E0FE
:104A90000E949E02009731F4C7010E945A240E948E
:104AA000F6230AC0C80163E471E00E949E020097E9
:104AB00019F4C7010E942E241092600508C090923C
:104AC00060059F5F9093130602C0109213068091B9
:104AD000610590916205FC01A081B181FD012481F5
:104AE0003581F9010995892B09F078CFA8960FB681
:104AF000F894DEBF0FBECDBFCF91DF911F910F9114
:104B0000FF90EF90DF90CF90BF90AF909F9008956F
:104B100060912206709123068091240690912506CB
:104B200008958091220690912306A0912406B091C9
:104B300025060196A11DB11D8093220690932306A0
:104B4000A0932406B09325060895EF92FF920F9349
:104B50001F930E94250C20911A0630911B0640914C
:104B60001C0650911D06E0901E06F0901F06009155
:104B7000200610912106621773078407950760F0DD
:104B8000E0E0F0E0621B730B840B950B6E157F0564
:104B90008007910790F00FC0E0E0F0E0209530959D
:104BA00040955095260F371F481F591F2E153F055A
:104BB0004007510710F0E1E0F0E0CF011F910F91A5
:104BC000FF90EF9008950E94250C60931A06709351
:104BD0001B0680931C0690931D06109222061092CD
:104BE0002306109224061092250608958093180635
:104BF0009093190640931E0650931F06609320065B
:104C00007093210610922206109223061092240619
:104C10001092250661E975E243E050E00E94952A72
:104C200008952091A70630E0F901E95DF94F8083EE
:104C30002F5F3F4F2F7730702093A7068091260675
:104C40008F5F8093260608959C01F999FECF32BDAF
:104C500021BDF89A80B508959C01F999FECF1FBA3D
:104C600032BD21BD60BD0FB6F894FA9AF99A0FBE15
:104C70000895DF93CF930F92CDB7DEB780689FB7CB
:104C80009983F89443988EBD0DB407FEFDCF8EB581
:104C90008EBD0DB407FEFDCF8EB5439A99819FBF9F
:104CA0000F90CF91DF910895DF93CF930F92CDB7FF
:104CB000DEB7482F20E030E0942F906C8FB78983C7
:104CC000F89443989EBD0DB407FEFDCF8EB5CB0181
:104CD000022E02C0969587950A94E2F78EBD0DB418
:104CE00007FEFDCF8EB5439A89818FBF4F5F285F46
:104CF0003F4F2031310501F70F90CF91DF9108959B
:104D0000DF93CF930F92CDB7DEB7482F20E030E08E
:104D1000FB01E20FF31FE081942F920F906C8FB78D
:104D20008983F89443989EBD0DB407FEFDCF8EB5E0
:104D3000EEBD0DB407FEFDCF8EB5439A89818FBFBE
:104D40002F5F3F4F2830310519F70F90CF91DF913A
:104D50000895FF920F931F93DF93CF930F92CDB7D8
:104D6000DEB7182FF62E042F0E943926982F106CCC
:104D70008FB78983F89443981EBD0DB407FEFDCF0D
:104D80008EB5802F809589230F21802B8EBD0DB489
:104D900007FEFDCF8EB5439A89818FBF0F90CF91CB
:104DA000DF911F910F91FF900895DF93CF930F92A2
:104DB000CDB7DEB7782F392FA22F862F90E0820F44
:104DC000911D8038910554F58FB78983F8944398E5
:104DD00080E68EBD0DB407FEFDCF8EB5872F932FD5
:104DE0009C01F90107C080818EBD0DB407FEFDCF87
:104DF00031968EB58E2F871B8617A8F3FA0107C050
:104E000080818EBD0DB407FEFDCF31968EB58E2FFD
:104E1000841B8A17A8F3439A89818FBF0F90CF9183
:104E2000DF910895882339F0813041F0823049F0D4
:104E30008330E1F411C08CE068E005C08CE06CE0E8
:104E400002C08CE06CE14FE30E94A92686E162E09B
:104E500043E00E94A92608958CE060E04FE30E94A1
:104E6000A92686E163E043E00E94A926089584B163
:104E7000886284B93B9A2D9A439A2C9A2A9A8CB5C7
:104E800081618CBD8DB581608DBD8CB580648CBD1C
:104E9000439A0895CF93DF93EC01CE010E948C0CCE
:104EA0002197D9F7DF91CF9108950F931F93082F82
:104EB000429B02C084E446C081E00E943926182F3C
:104EC0001F71812F8151823020F0113011F012308A
:104ED00031F481E00E9439268F718117D1F30830B7
:104EE00029F0063171F00931B9F408C0429886E022
:104EF00090E00E944A2782E063E007C0163161F427
:104F000002C0193149F482E069E04FE10E94A9260C
:104F100081E090E00E944A2782E0602F4FE10E94EA
:104F2000A926183011F081E001C084EB90E00E94C6
:104F30004A2781E00E9439268F71801711F083E49F
:104F400001C080E41F910F9108951F920F920FB638
:104F50000F921124AF92BF92CF92DF92EF92FF9205
:104F60000F931F932F933F934F935F936F937F9371
:104F70008F939F93AF93BF93EF93FF93DF93CF9361
:104F8000CDB7DEB7E497DEBFCDBF8FB78983F89486
:104F90001E9BBCC043988FE88EBD0DB407FEFDCFAD
:104FA0008EB51EBC0DB407FEFDCF0EB5439A20E2B0
:104FB000E22E90E8A92EB12C83E0C82ED12CCC0E85
:104FC000DD1EA1C002FF02C00B7F9DC003FF7EC09B
:104FD00081E00E9439268F71863029F0863119F0E0
:104FE000813109F069C087E00E9439268093BB06B1
:104FF00086E00E943926881F8827881F8093BC0678
:10500000882309F45CC08FB78A83F8944398EEBC78
:105010000DB407FEFDCF8EB51EBC0DB407FEFDCF4F
:10502000FEB48F2D83508D37B8F52F2D30E0809151
:105030002606A501481B51092417350714F080E006
:1050400016C08F2D0E94112610E008C01EBC0DB4A2
:1050500007FEFDCF8EB50E9411261F5F1F15B0F30E
:105060001BC01EBC0DB407FEFDCF9EB58F5F8F1514
:10507000C0F38091B5069091B60601969093B6065E
:105080008093B506C60166EE71E00E946F028EEE57
:1050900092E0B6010E94AE0E439A8A818FBF809142
:1050A000AD069091AE0601969093AE068093AD0644
:1050B00081E08093AB0603C081E08093AC0686E17B
:1050C0000E9455278034D9F7077F1DC006FF0BC00B
:1050D0000F7B8091B7069091B80601969093B80621
:1050E0008093B70610C001FF02C00D7F0CC000FF07
:1050F00002C00E7F08C007FF06C00F778091B90677
:105100008F5F8093B906002309F05CCF89818FBF40
:10511000E496DEBFCDBFCF91DF91FF91EF91BF91BC
:10512000AF919F918F917F916F915F914F913F913F
:105130002F911F910F91FF90EF90DF90CF90BF9034
:10514000AF900F900FBE0F901F901895FF920F9386
:105150001F93CF93DF93EC018B01F42E81E00E942B
:1051600039268F71823001F18231F1F089E10E949C
:105170005527CE016AE0A8012F2D0E94D52681E097
:105180008093BD0682E062E04FE10E94A9268091F3
:10519000AC068823E1F31092AC0682E00E94392627
:1051A00082958695877001C084E4DF91CF911F912D
:1051B0000F91FF9008957F928F929F92AF92BF922E
:1051C000CF92DF92EF92FF920F931F93DF93CF93D3
:1051D000CDB7DEB72A970FB6F894DEBF0FBECDBFAE
:1051E0007C016B01042F48E9742E34E3832E32E1F5
:1051F000932E5E010894A11CB11C52C0102F0536DD
:1052000008F014E68FEFE8168FEFF80611F481E44A
:1052100001C081E6155F19831B508A837B828091D0
:10522000AA068C838F5F8093AA069E828D82F88661
:10523000EF828091A8069091A9069A878987C50177
:10524000B601412F0E94A628382F882341F1282F2C
:10525000813031F08330C9F0853069F0803421F538
:105260008091AF069091B00601969093B00680931E
:10527000AF06232F19C08091B1069091B206019616
:105280009093B2068093B1060FC08091B3069091BF
:10529000B40601969093B4068093B30605C0011B33
:1052A000002309F0ABCF20E0822F2A960FB6F894A6
:1052B000DEBF0FBECDBFCF91DF911F910F91FF9049
:1052C000EF90DF90CF90BF90AF909F908F907F90A6
:1052D00008950E94DB280895882329F088E00E9421
:1052E00055273A98089542983A9A80E793E00E94A9
:1052F0004A2786E10E94552708950E946C29089547
:105300001F93182F88E0612F4FE10E94A92681E0AA
:105310000E9439268F71863011F0893021F486E998
:1053200090E00E944A2788E00E94392690E08F7121
:105330009070212F30E08217930711F083E401C0B1
:1053400080E41F9108950E94802908959C01F99995
:10535000FECFCB01B90124E236E20E94FF0208959C
:10536000DF93CF9300D0CDB7DEB789E090E0BE01E8
:105370006F5F7F4F42E050E00E94A62989819A81A9
:105380000F900F90CF91DF910895BC0180E090E0E5
:1053900048E050E00E94A62908950F931F93DF93E1
:1053A000CF93CDB7DEB7EB970FB6F894DEBF0FBE45
:1053B000CDBF0E9437273A9A8FB78983F8944398D4
:1053C0008EEC8EBD0DB407FEFDCF8EB51EBC0DB4A8
:1053D00007FEFDCF8EB5439A89818FBF82E063E0DF
:1053E0004FE10E94A9268EEF91E00E944A2781E0BA
:1053F0000E9412278BE00E94802985E060E840E847
:105400000E94A92686E10E94552782E264E372E1A8
:105410000E9454260E94B029BC0180E20E945426BA
:105420008E010E5F1F4FC8010E94C52984E2B8019A
:105430000E9480268FE00E9439268FB78983F894D6
:1054400043988EEC8EBD0DB407FEFDCF8EB588E07F
:105450008EBD0DB407FEFDCF8EB5439A89818FBFF7
:1054600080916B00806480936B0080916800816004
:105470008093680081E00E9439268F71863169F03F
:105480008E01065F1F4FC8016DE572E00E946F023A
:105490008EEE92E0B8010E94AE0EEB960FB6F89435
:1054A000DEBF0FBECDBFCF91DF911F910F91089549
:1054B000F999FECF2CE236E20E941B030895DF9398
:1054C000CF9300D0CDB7DEB79A83898389E090E08F
:1054D000BE016F5F7F4F42E050E00E94582A698111
:1054E0007A8180E20E94542689819A819093A9064C
:1054F0008093A8060F900F90CF91DF9108950E949E
:105500005F2A089586E1E8EAF6E0DF011D928A95B8
:10551000E9F70E94B0299093A9068093A8060E94FB
:10552000CD2908950E94822A0895823000F5E82F3F
:10553000F0E0EE0FFF1FE254F94F71836083882380
:1055400019F08130A1F408C0809169008C7F842B10
:1055500080936900E89A089580916900440F551F6F
:10556000440F551F837F842B80936900E99A089527
:105570001F920F920FB60F9211242F933F934F93C8
:105580005F936F937F938F939F93AF93BF93EF93AB
:10559000FF938091BE069091BF06892B29F0E09180
:1055A000BE06F091BF060995FF91EF91BF91AF91B3
:1055B0009F918F917F916F915F914F913F912F912B
:1055C0000F900FBE0F901F9018951F920F920FB65D
:1055D0000F9211242F933F934F935F936F937F9379
:1055E0008F939F93AF93BF93EF93FF938091C006E8
:1055F0009091C106892B29F0E091C006F091C10677
:105600000995FF91EF91BF91AF919F918F917F91FC
:105610006F915F914F913F912F910F900FBE0F901F
:105620001F901895629FD001739FF001829FE00D3B
:10563000F11D649FE00DF11D929FF00D839FF00D11
:10564000749FF00D659FF00D9927729FB00DE11DBD
:10565000F91F639FB00DE11DF91FBD01CF0111249A
:105660000895A1E21A2EAA1BBB1BFD010DC0AA1FA3
:10567000BB1FEE1FFF1FA217B307E407F50720F0BB
:10568000A21BB30BE40BF50B661F771F881F991F36
:105690001A9469F760957095809590959B01AC017F
:1056A000BD01CF0108952F923F924F925F926F926A
:1056B0007F928F929F92AF92BF92CF92DF92EF92A2
:1056C000FF920F931F93CF93DF93CDB7DEB7CA1B23
:1056D000DB0B0FB6F894DEBF0FBECDBF09942A884E
:1056E000398848885F846E847D848C849B84AA84F6
:1056F000B984C884DF80EE80FD800C811B81AA8183
:10570000B981CE0FD11D0FB6F894DEBF0FBECDBF4D
:10571000ED010895EE0FFF1F0590F491E02D09941F
:1057200012E0C4E8D2E004C0FE010E948C2B229655
:0A573000C638D107C9F7F894FFCF7F
:10573A002A302558002A2558000A002D0046696C8F
:10574A00656E616D653A20004E6F204750533A20CE
:10575A0000416464723A203078005374617274694B
:10576A006E67206E6F7721002F002C00244750525D
:10577A004D4300244750474741002000C606000019
:10578A0056424D524444002E6C6F67002E62616B84
:10579A0000FFFFFFFF000000004510610DD30F0856
:1057AA0010E60F331000000000761333148D13DC5B
:0E57BA0013FA13D41300000000861A610D00CC
:00000001FF
